:020000040800F2
:1000000000500020B1760008691400086B14000845
:100010006D1400086F14000871140008000000003F
:100020000000000000000000000000007314000841
:100030007514000800000000771400087914000807
:10004000FD760008FD760008FD760008FD760008C4
:10005000FD760008FD760008FD760008FD760008B4
:10006000FD760008FD760008FD760008FD760008A4
:10007000FD760008FD760008FD760008FD76000894
:10008000FD760008FD760008FD760008FD76000884
:10009000B1140008FD760008FD760008FD76000822
:1000A000FD760008FD760008FD760008FD76000864
:1000B000FD760008FD760008FD760008FD76000854
:1000C000FD760008FD760008FD760008FD76000844
:1000D000FD760008FD760008FD760008FD76000834
:1000E000FD760008FD760008FD760008000000009F
:1000F0000000000000000000000000000000000000
:0C0100000000000000000000FD76000878
:10011000034613F8012B002AFBD1181A0138704747
:1001200081F0004102E000BF83F0004330B54FEAA8
:1001300041044FEA430594EA050F08BF90EA020F15
:100140001FBF54EA000C55EA020C7FEA645C7FEAA8
:10015000655C00F0E2804FEA5454D4EB5555B8BFCB
:100160006D420CDD2C4480EA020281EA030382EA3C
:10017000000083EA010180EA020281EA0303362DCE
:1001800088BF30BD11F0004F4FEA01314FF4801CA1
:100190004CEA113102D0404261EB410113F0004FB3
:1001A0004FEA03334CEA133302D0524263EB43036A
:1001B00094EA050F00F0A780A4F10104D5F1200E08
:1001C0000DDB02FA0EFC22FA05F2801841F1000163
:1001D00003FA0EF2801843FA05F359410EE0A5F137
:1001E00020050EF1200E012A03FA0EFC28BF4CF068
:1001F000020C43FA05F3C01851EBE37101F000451E
:1002000007D54FF0000EDCF1000C7EEB00006EEB2A
:100210000101B1F5801F1BD3B1F5001F0CD34908B4
:100220005FEA30004FEA3C0C04F101044FEA44520B
:1002300012F5800F80F09A80BCF1004F08BF5FEA92
:10024000500C50F1000041EB045141EA050130BD72
:100250005FEA4C0C404141EB0101013C28BFB1F584
:10026000801FE9D291F0000F04BF01460020B1FACF
:1002700081F308BF2033A3F10B03B3F120020CDAA2
:100280000C3208DD02F1140CC2F10C0201FA0CF080
:1002900021FA02F10CE002F11402D8BFC2F1200CE5
:1002A00001FA02F120FA0CFCDCBF41EA0C0190409B
:1002B000E41AA2BF01EB0451294330BD6FEA0404E4
:1002C0001F3C1CDA0C340EDC04F11404C4F12002CF
:1002D00020FA04F001FA02F340EA030021FA04F3E1
:1002E00045EA030130BDC4F10C04C4F1200220FA38
:1002F00002F001FA04F340EA0300294630BD21FA76
:1003000004F0294630BD94F0000F83F4801306BF3B
:1003100081F480110134013D4EE77FEA645C18BF2F
:100320007FEA655C29D094EA050F08BF90EA020FC6
:1003300005D054EA000C04BF1946104630BD91EABE
:10034000030F1EBF0021002030BD5FEA545C05D1C1
:100350004000494128BF41F0004130BD14F5800400
:100360003CBF01F5801130BD01F0004545F0FE4174
:1003700041F470014FF0000030BD7FEA645C1ABFA9
:10038000194610467FEA655C1CBF0B46024650EAE0
:10039000013406BF52EA033591EA030F41F400210C
:1003A00030BD00BF90F0000F04BF0021704730B592
:1003B0004FF4806404F132044FF000054FF0000167
:1003C00050E700BF90F0000F04BF0021704730B528
:1003D0004FF4806404F1320410F0004548BF4042FD
:1003E0004FF000013EE700BF42004FEAE2014FEA52
:1003F00031014FEA02701FBF12F07F4393F07F4F2D
:1004000081F06051704732F07F4208BF704793F02F
:100410007F4F04BF41F40021704730B54FF4607442
:1004200001F0004521F000411CE700BF50EA010245
:1004300008BF704730B54FF000050AE050EA0102EE
:1004400008BF704730B511F0004502D5404261EB5E
:1004500041014FF4806404F132045FEA915C3FF49F
:10046000D8AE4FF003025FEADC0C18BF03325FEA3C
:10047000DC0C18BF033202EBDC02C2F1200300FAED
:1004800003FC20FA02F001FA03FE40EA0E0021FA12
:1004900002F11444BDE600BF70B54FF0FF0C4CF400
:1004A000E06C1CEA11541DBF1CEA135594EA0C0FB2
:1004B00095EA0C0F00F0DEF82C4481EA030621EAED
:1004C0004C5123EA4C5350EA013518BF52EA033528
:1004D00041F4801143F4801338D0A0FB02CE4FF0DA
:1004E0000005E1FB02E506F00042E0FB03E54FF00A
:1004F0000006E1FB03569CF0000F18BF4EF0010E02
:10050000A4F1FF04B6F5007F64F5407404D25FEAFD
:100510004E0E6D4146EB060642EAC62141EA5551B0
:100520004FEAC52040EA5E504FEACE2EB4F1FD0CF2
:1005300088BFBCF5E06F1ED8BEF1004F08BF5FEA70
:10054000500E50F1000041EB045170BD06F0004622
:1005500046EA010140EA020081EA0301B4EB5C04CF
:10056000C2BFD4EB0C0541EA045170BD41F48011C7
:100570004FF0000E013C00F3AB8014F1360FDEBFEC
:10058000002001F0004170BDC4F10004203C35DAC8
:100590000C341BDC04F11404C4F1200500FA05F34B
:1005A00020FA04F001FA05F240EA020001F00042EC
:1005B00021F0004110EBD37021FA04F642EB060162
:1005C0005EEA430E08BF20EAD37070BDC4F10C048C
:1005D000C4F1200500FA04F320FA05F001FA04F250
:1005E00040EA020001F0004110EBD37041F100013C
:1005F0005EEA430E08BF20EAD37070BDC4F1200547
:1006000000FA05F24EEA020E20FA04F301FA05F2AE
:1006100043EA020321FA04F001F0004121FA04F256
:1006200020EA020000EBD3705EEA430E08BF20EA26
:10063000D37070BD94F0000F0FD101F00046400060
:1006400041EB010111F4801F08BF013CF7D041EAE2
:10065000060195F0000F18BF704703F000465200E6
:1006600043EB030313F4801F08BF013DF7D043EAB7
:100670000603704794EA0C0F0CEA135518BF95EA6D
:100680000C0F0CD050EA410618BF52EA4306D1D1F4
:1006900081EA030101F000414FF0000070BD50EA13
:1006A000410606BF1046194652EA430619D094EA9D
:1006B0000C0F02D150EA013613D195EA0C0F05D187
:1006C00052EA03361CBF104619460AD181EA0301DB
:1006D00001F0004141F0FE4141F470014FF0000093
:1006E00070BD41F0FE4141F4780170BD70B54FF02E
:1006F000FF0C4CF4E06C1CEA11541DBF1CEA1355AE
:1007000094EA0C0F95EA0C0F00F0A7F8A4EB05048F
:1007100081EA030E52EA03354FEA013100F0888086
:100720004FEA03334FF0805545EA131343EA12634F
:100730004FEA022245EA111545EA10654FEA002604
:100740000EF000419D4208BF964244F1FD0404F5BD
:10075000407402D25B084FEA3202B61A65EB030519
:100760005B084FEA32024FF480104FF4002CB6EBD6
:10077000020E75EB030E22BFB61A754640EA0C0056
:100780005B084FEA3202B6EB020E75EB030E22BF96
:10079000B61A754640EA5C005B084FEA3202B6EBD7
:1007A000020E75EB030E22BFB61A754640EA9C0096
:1007B0005B084FEA3202B6EB020E75EB030E22BF66
:1007C000B61A754640EADC0055EA060E18D04FEA24
:1007D000051545EA16754FEA06164FEAC30343EAC4
:1007E00052734FEAC2025FEA1C1CC0D111F4801F91
:1007F0000BD141EA00014FF000004FF0004CB6E78A
:1008000011F4801F04BF01430020B4F1FD0C88BF28
:10081000BCF5E06F3FF6AFAEB5EB030C04BFB6EB33
:10082000020C5FEA500C50F1000041EB045170BD26
:100830000EF0004E4EEA113114EB5C04C2BFD4EB53
:100840000C0541EA045170BD41F480114FF0000ED7
:10085000013C90E645EA060E8DE60CEA135594EA53
:100860000C0F08BF95EA0C0F3FF43BAF94EA0C0F56
:100870000AD150EA01347FF434AF95EA0C0F7FF4CB
:1008800025AF104619462CE795EA0C0F06D152EA1F
:1008900003353FF4FDAE1046194622E750EA410603
:1008A00018BF52EA43067FF4C5AE50EA41047FF414
:1008B0000DAF52EA43057FF4EBAE12E74FF0FF3C79
:1008C00006E000BF4FF0010C02E000BF4FF0010C4A
:1008D0004DF804CD4FEA410C7FEA6C5C4FEA430CC3
:1008E00018BF7FEA6C5C1BD001B050EA410C0CBF12
:1008F00052EA430C91EA030F02BF90EA020F002074
:10090000704710F1000F91EA030F58BF994208BFDA
:1009100090422CBFD8176FEAE37040F00100704797
:100920004FEA410C7FEA6C5C02D150EA013C07D1EE
:100930004FEA430C7FEA6C5CD6D152EA033CD3D039
:100940005DF8040B704700BF8446104662468C4633
:100950001946634600E000BF01B5FFF7B7FF002866
:1009600048BF10F1000F01BD4DF808EDFFF7F4FF8F
:100970000CBF012000205DF808FB00BF4DF808ED1A
:10098000FFF7EAFF34BF012000205DF808FB00BF3D
:100990004DF808EDFFF7E0FF94BF012000205DF85F
:1009A00008FB00BF4DF808EDFFF7CEFF94BF012014
:1009B00000205DF808FB00BF4DF808EDFFF7C4FF0D
:1009C00034BF012000205DF808FB00BF4FEA410C56
:1009D0007FEA6C5C02D150EA013C0AD14FEA430C39
:1009E0007FEA6C5C02D152EA033C02D14FF0000076
:1009F00070474FF0010070474A0011D212F5001203
:100A000011D20DD56FF47873B3EB62520ED44FEA66
:100A1000C12343F0004343EA505323FA02F07047E6
:100A20004FF00000704750EA013002D14FF0FF3024
:100A300070474FF0000070474FEA4102B2F1E043C7
:100A400024BFB3F5001CDCF1FE5C0DD901F0004CB5
:100A50004FEAC0024CEA5070B2F1004F40EB830005
:100A600008BF20F00100704711F0804F21D113F131
:100A70003872BCBF01F00040704741F480114FEA6A
:100A80005252C2F11802C2F1200C10FA0CF320FAF3
:100A900002F018BF40F001004FEAC1234FEAD32310
:100AA00003FA0CFC40EA0C0023FA02F34FEA43037A
:100AB000CCE77FEA625307D150EA01331EBF4FF003
:100AC000FE4040F44000704701F0004040F0FE401E
:100AD00040F40000704700BF80F0004002E000BF1B
:100AE00081F0004142001FBF5FEA410392EA030F19
:100AF0007FEA226C7FEA236C6AD04FEA1262D2EB63
:100B00001363C1BFD218414048404140B8BF5B4267
:100B1000192B88BF704710F0004F40F4000020F000
:100B20007F4018BF404211F0004F41F4000121F016
:100B30007F4118BF494292EA030F3FD0A2F1010260
:100B400041FA03FC10EB0C00C3F1200301FA03F19E
:100B500000F0004302D5494260EB4000B0F5000FC1
:100B600013D3B0F1807F06D340084FEA310102F180
:100B70000102FE2A51D2B1F1004F40EBC25008BF32
:100B800020F0010040EA03007047490040EB0000FC
:100B9000013A28BFB0F5000FEDD2B0FA80FCACF1FD
:100BA000080CB2EB0C0200FA0CF0AABF00EBC2502A
:100BB00052421843BCBFD0401843704792F0000F18
:100BC00081F4000106BF80F400000132013BB5E76B
:100BD0004FEA41037FEA226C18BF7FEA236C21D0E1
:100BE00092EA030F04D092F0000F08BF0846704746
:100BF00090EA010F1CBF0020704712F07F4F04D114
:100C0000400028BF40F00040704712F100723CBF26
:100C100000F50000704700F0004343F0FE4040F450
:100C2000000070477FEA226216BF08467FEA23630E
:100C30000146420206BF5FEA412390EA010F40F4F9
:100C4000800070474FF0000304E000BF10F0004345
:100C500048BF40425FEA000C08BF704743F096432C
:100C600001464FF000001CE050EA010208BF704747
:100C70004FF000030AE000BF50EA010208BF7047CE
:100C800011F0004302D5404261EB41015FEA010CE3
:100C900002BF84460146002043F0B64308BFA3F1DB
:100CA0008053A3F50003BCFA8CF2083AA3EBC253BD
:100CB00010DB01FA02FC634400FA02FCC2F12002DC
:100CC000BCF1004F20FA02F243EB020008BF20F013
:100CD0000100704702F1200201FA02FCC2F1200279
:100CE00050EA4C0021FA02F243EB020008BF20EA6E
:100CF000DC7070474FF0FF0C1CEAD0521EBF1CEA9C
:100D0000D15392EA0C0F93EA0C0F6FD01A4480EA89
:100D1000010C400218BF5FEA41211ED04FF0006372
:100D200043EA501043EA5111A0FB01310CF000409E
:100D3000B1F5000F3EBF490041EAD3715B0040EAC4
:100D4000010062F17F02FD2A1DD8B3F1004F40EB94
:100D5000C25008BF20F00100704790F0000F0CF067
:100D6000004C08BF49024CEA502040EA51207F3A2B
:100D7000C2BFD2F1FF0340EAC250704740F4000006
:100D80004FF00003013A5DDC12F1190FDCBF00F0F7
:100D900000407047C2F10002410021FA02F1C2F1A5
:100DA000200200FA02FC5FEA310040F1000053EA41
:100DB0004C0308BF20EADC70704792F0000F00F08F
:100DC000004C02BF400010F4000F013AF9D040EA95
:100DD0000C0093F0000F01F0004C02BF490011F429
:100DE000000F013BF9D041EA0C018FE70CEAD15327
:100DF00092EA0C0F18BF93EA0C0F0AD030F0004CA7
:100E000018BF31F0004CD8D180EA010000F000405A
:100E1000704790F0000F17BF90F0004F084691F018
:100E2000000F91F0004F14D092EA0C0F01D1420252
:100E30000FD193EA0C0F03D14B0218BF084608D11B
:100E400080EA010000F0004040F0FE4040F4000065
:100E5000704740F0FE4040F4400070474FF0FF0CF8
:100E60001CEAD0521EBF1CEAD15392EA0C0F93EA3F
:100E70000C0F69D0A2EB030280EA010C49024FEA91
:100E8000402037D04FF0805343EA111143EA10134A
:100E90000CF000408B4238BF5B0042F17D024FF402
:100EA000000C8B4224BF5B1A40EA0C00B3EB510FDD
:100EB00024BFA3EB510340EA5C00B3EB910F24BFC6
:100EC000A3EB910340EA9C00B3EBD10F24BFA3EB4B
:100ED000D10340EADC001B0118BF5FEA1C1CE0D113
:100EE000FD2A3FF650AF8B4240EBC25008BF20F0C6
:100EF000010070470CF0004C4CEA50207F32C2BF1A
:100F0000D2F1FF0340EAC250704740F400004FF0B6
:100F10000003013A37E792F0000F00F0004C02BFE7
:100F2000400010F4000F013AF9D040EA0C0093F0B1
:100F3000000F01F0004C02BF490011F4000F013B0B
:100F4000F9D041EA0C0195E70CEAD15392EA0C0F73
:100F500008D142027FF47DAF93EA0C0F7FF470AFAB
:100F6000084676E793EA0C0F04D14B023FF44CAFEE
:100F700008466EE730F0004C18BF31F0004CCAD183
:100F800030F000427FF45CAF31F000437FF43CAFBF
:100F90005FE700BF4FF0FF3C06E000BF4FF0010CE1
:100FA00002E000BF4FF0010C4DF804CD4FEA4002C3
:100FB0004FEA41037FEA226C18BF7FEA236C11D00D
:100FC00001B052EA530C18BF90EA010F58BFB2EBC0
:100FD000030088BFC81738BF6FEAE17018BF40F040
:100FE000010070477FEA226C02D15FEA402C05D1F4
:100FF0007FEA236CE4D15FEA412CE1D05DF8040B79
:10100000704700BF844608466146FFE70FB5FFF70B
:10101000C9FF002848BF10F1000F0FBD4DF808EDC3
:10102000FFF7F4FF0CBF012000205DF808FB00BFB4
:101030004DF808EDFFF7EAFF34BF012000205DF80E
:1010400008FB00BF4DF808EDFFF7E0FF94BF01205B
:1010500000205DF808FB00BF4DF808EDFFF7D2FF58
:1010600094BF012000205DF808FB00BF4DF808ED9B
:10107000FFF7C8FF34BF012000205DF808FB00BF68
:101080004FEA40024FEA41037FEA226C02D15FEA55
:10109000402C08D17FEA236C02D15FEA412C02D1B7
:1010A0004FF0000070474FF0010070474FEA4002D8
:1010B000B2F1FE4F0FD34FF09E03B3EB12620DD986
:1010C0004FEA002343F0004310F0004F23FA02F0F0
:1010D00018BF404270474FF00000704712F1610F97
:1010E00001D1420205D110F0004008BF6FF000406E
:1010F00070474FF00000704710B5054C237833B9A6
:10110000044B13B10448AFF300800123237010BDDA
:10111000B402002000000000D4B6000808B5034B5C
:101120001BB103490348AFF3008008BD0000000075
:10113000B8020020D4B6000800B589B004A9002385
:1011400004934B608B60CB6003F1804303F5043361
:101150009A6942F010029A619A6902F010020192B3
:10116000019A9A6942F004029A619A6902F00402B3
:101170000292029A9A6942F008029A619B6903F00E
:1011800008030393039B4FF4005304930123069336
:10119000024802F0CDFD09B05DF804FB00100140EB
:1011A00008B50948094B0360094B4360002383607D
:1011B000C3604FF48042026143618361C361036293
:1011C00003F050F908BD00BF540300200054004054
:1011D000801A06002DE9F0438FB00EAC04E90F0031
:1011E0009DF82830013B092B0AD8DFE803F0050CF5
:1011F000111518242E4C78920C990B9801F0B8F820
:101200000FB0BDE8F0830C990B9801F03DF8F7E7BB
:101210000B9801F021F8F3E701F07EF8F0E752486F
:10122000036A0093C369B0F91A20B0F91810C068B6
:1012300001F03EFAE4E70D9B0C9A0B994B4800F045
:10124000A3FD4B4801F05EFADAE70B98FFF72EFF9B
:1012500004B20C98FFF72AFF05B20020424B187029
:10126000214600F041FB2946012000F03DFB414EA4
:1012700000952346404A8021304607F051F9304618
:1012800001F040FABCE7384B1D78DE68B3F91870FE
:10129000B3F91A80D3F81C90B3F99C20B3F99E10CF
:1012A000344C09910892186AFFF79EF8CDE90601BF
:1012B0004846FFF799F8CDE90401CDF80C80029774
:1012C0003046FFF791F8CDE900012B462B4A8021EB
:1012D000204607F025F9204601F014FA90E70B9D0F
:1012E0000C9E3146284601F0A9F8224C3046FFF703
:1012F0007BF8CDE902012846FFF776F8CDE9000139
:101300001F4A8021204607F00BF9204601F0FAF928
:1013100076E70B9C0C9D0D9E1A4F33462A462146BC
:10132000384600F031FD33462A46214607F12400B5
:1013300000F02AFD0F4F3046FFF756F8CDE90401C3
:101340002846FFF751F8CDE902012046FFF74CF897
:10135000CDE900010C4A8021384607F0E1F8384613
:1013600001F0D0F94CE700BF780700209C0700206F
:10137000F0B60008D0020020FCB6000810B7000844
:1013800050B70008C00700206CB7000800B587B050
:1013900002F01EFC00F06DF9FFF7CEFEFFF700FF34
:1013A000264C00222649204601F0D0FB2549204644
:1013B00001F0E3FB2449204602F088FB204601F0BF
:1013C000FCFB4FF47A7002F027FC01F07DF81F4817
:1013D00001F098F91E4801F095F91E4800F020FD33
:1013E0001D4801F08FF90AE002A801F077F89DF896
:1013F000083023B106AB13E90F00FFF7EBFE174BE4
:101400001B78002BF0D0154B00221A7000F078FDED
:10141000134A13780133DBB21370092BE4D9134656
:1014200000221A700F48036A0093C369B0F91A20AA
:10143000B0F91810C06801F03BF9D5E7A803002007
:1014400010000020A40000204400002090B70008F5
:10145000ACB7000854030020D4B700088C06002065
:1014600050030020780700207047FEE7FEE7FEE704
:10147000FEE770477047704708B502F0BBFB094AAA
:10148000136801331360084A13780133DBB2137019
:101490001378042B05D9134600221A70034B01223E
:1014A0001A7008BD88060020840600208C060020E3
:1014B00008B5024804F02FFF08BD00BF500B002004
:1014C00082B00E4B9A6942F001029A619A6902F069
:1014D00001020092009ADA6942F08052DA61DB6917
:1014E00003F080530193019B054A536823F0E063A6
:1014F00043F00073536002B0704700BF0010024019
:101500000000014000B587B00023029303930493C9
:1015100005930268124B9A4202D007B05DF804FBB3
:1015200003F5DE33DA6942F40012DA61DA6902F4B3
:1015300000120092009A9A6942F008029A619B692F
:1015400003F008030193019BC0230293122303932A
:101550000323059302A9034802F0EAFBDDE700BF7D
:1015600000540040000C014000B589B000230493F2
:101570000593069307930368204A934205D0B3F17D
:10158000804F1ED009B05DF804FB1D4BDA6942F0B4
:101590000202DA61DA6902F002020092009A9A69A4
:1015A00042F004029A619B6903F004030193019BDA
:1015B000C02304930123069304A9124802F0B8FB48
:1015C000E0E703F50433DA6942F00102DA61DA692F
:1015D00002F001020292029A9A6942F004029A61B0
:1015E0009B6903F004030393039B032304930123E8
:1015F000069304A9034802F09BFBC3E700040040E4
:10160000001002400008014000B587B0002302939B
:101610000393049305930268124B9A4202D007B0D9
:101620005DF804FB03F564439A6942F400629A6131
:101630009A6902F400620092009A9A6942F00402E8
:101640009A619B6903F004030193019B4FF440737B
:101650000293022303930323059302A9024802F095
:1016600067FBDCE7002C014000080140704772B6C0
:10167000FEE710B590B006AC28220021204606F007
:10168000C9FF00230193029303930493059301235D
:1016900006934FF48033079302220D920E934FF47A
:1016A000E0130F93204603F02BFA78B90F23019330
:1016B00002210291002303934FF480620492059368
:1016C00001A803F04FFC18B910B010BDFFF7CFFF11
:1016D000FFF7CDFF10B584B0006864240294019335
:1016E000009201230A46D02103F04AF804B010BD4D
:1016F00000B583B0022301AA4721FFF7EBFF9DF855
:1017000004309DF8050040EA032000B203B05DF804
:1017100004FB00B587B08DF817200068642302939E
:10172000012301930DF1170200920A46D02102F025
:1017300077FF07B05DF804FB30B583B004460023A3
:101740008DF807300160002242608260C26003822F
:10175000837401230DF107027521FFF7BBFF68BBFE
:1017600005469DF80730682B03D00125284603B0B5
:1017700030BD03226B212046FFF7CBFF322002F061
:101780004BFA002219212046FFF7C3FF03221A213A
:101790002046FFF7BEFF00221B212046FFF7B9FFBE
:1017A00000221C212046FFF7B4FF002238212046EA
:1017B000FFF7AFFF642002F02FFAD7E70125D5E746
:1017C00070B50646002406E03046FFF791FF012081
:1017D00002F022FA0134632CF6DD002500240DE02E
:1017E0003046FFF785FFFFF731FA01462046FFF745
:1017F00079F90446012002F00FFA013541F28733EE
:101800009D42EDDD04492046FFF728FB7060002370
:10181000B3600123B37470BD00409C45837C03B961
:10182000704770B504460D46FFF762FF2082FFF750
:101830000DFA6168FFF754F91849FFF70FFBE060F4
:1018400020F000401649FFF7F3FB08B10023E360E6
:10185000A6682946E068FFF74DFA01463046FFF7D3
:1018600041F9A06004E00F492846FFF739F9A0606C
:10187000A5680D492846FFF7F9FB0028F3D104E0DD
:1018800008492846FFF72EF9A060A56807492846B1
:10189000FFF7CEFB0028F3D170BD00BF000003436B
:1018A000CDCC4C3E0000B44300003443000034C3B0
:1018B00038B5837C03B938BD0446FFF719FFFFF73D
:1018C000C5F965682946FFF70BF90449FFF712FAD5
:1018D00001462846FFF706F96060ECE76F12833A8D
:1018E000002383607047000010B5B1F57A7F22DCD9
:1018F00011F57A7F21DA3D493D4B01FB03F33D4A67
:10190000A2FB0323C3F38F1300283ED13A4A126887
:10191000536300291DDC002929DB384C00224FF4D9
:101920008061204602F00EFB00224FF40061204649
:1019300002F008FB1AE04FF47A710029DCDB40F674
:101940000F6301FB03F32B4AA2FB0323C3F38F13A3
:10195000DAE72A4C01224FF48061204602F0F2FAC5
:1019600000224FF40061204602F0ECFA10BD234C37
:1019700000224FF48061204602F0E4FA01224FF485
:101980000061204602F0DEFAF0E71B4A126893631A
:1019900000290FDC00291BDB184C00224FF480517A
:1019A000204602F0CFFA00224FF40051204602F008
:1019B000C9FADBE7114C00224FF48051204602F0B7
:1019C000C1FA01224FF40051204602F0BBFACDE7E4
:1019D0000A4C01224FF48051204602F0B3FA002253
:1019E0004FF40051204602F0ADFABFE718FCFFFFAC
:1019F000F1F1FFFFD34D621090060020000C014072
:101A000010B50D4C01224FF48061204602F09AFA85
:101A100001224FF40061204602F094FA01224FF4B3
:101A20008051204602F08EFA01224FF400512046E8
:101A300002F088FA10BD00BF000C014010B50F4C39
:101A400000224FF48061204602F07CFA00224FF41D
:101A50000061204602F076FA00224FF480512046C1
:101A600002F070FA00224FF40051204602F06AFAA8
:101A7000034B1B6800225A639A6310BD000C01409F
:101A80009006002008B501224FF48041014802F081
:101A900059FA08BD000C0140F0B595B00DAE002418
:101AA0000D940E940F94109411941294139405AF06
:101AB00020222146384606F0ADFD2B4D2B4B2B60E6
:101AC0006C60AC6040F60F63EB602C616C6180234E
:101AD000AB61284603F0D0FB60230D930E940F9466
:101AE000119410941294139422463146284603F020
:101AF0007BFC04223146284603F076FC05940694CC
:101B00000794089409944FF400530A934FF48043C8
:101B10000C933946284603F0EBFD2146284603F096
:101B2000E1FC0421284603F0DDFC01A901944C608E
:101B30008C60CC600E4B9A6942F008029A619B69F6
:101B400003F008030093009B4FF4F8430193012333
:101B5000029302230493074802F0EAF8FFF792FF8A
:101B6000FFF76CFF15B0F0BD90060020002C01407F
:101B700000100240000C01402DE9F0438DB00DF142
:101B80000C0824220021404606F044FD01AF002449
:101B900001940294204E214B33607460B4604FF680
:101BA000FF79C6F80C903461B461032303930122DA
:101BB00005920F23079309920B934146304603F099
:101BC00087FB019402943946304603F05BFD3C21CB
:101BD000304603F0F1FC124D4FF080432B606C60F7
:101BE000AC60C5F80C902C61AC614146284603F00E
:101BF0006FFB3946284603F045FD3C21284603F09B
:101C0000DBFC33685C622B685C62064B1C80064B15
:101C10001C800DB0BDE8F083DC060020000400400D
:101C200024070020DA060020D806002040B9094B1E
:101C30001B685A6A084B1888101A00B21A8070473D
:101C4000064B1B685A6A91B2054B18881A80401AD5
:101C500000B27047DC060020DA06002024070020CE
:101C6000D806002008B5FEF7F1FF0249FFF742F859
:101C700008BD00BFFF01043C10B50C46FEF7E6FFAF
:101C80002146FFF7EBF810BD10B504468C460399CA
:101C90000498C4F800C06260A360029BE360002364
:101CA00023616361A161E061FEF71AFF0249FFF75A
:101CB00021F8206210BD00BFCDCCCC3E2DE9F84FFD
:101CC000044608461146FEF70BFF0546014620680C
:101CD000FFF710F880462669D4F80C90294648464C
:101CE000FFF708F801463046FEF7FCFE2061D4F805
:101CF00004A05146FEF7FEFF0746266A014630461D
:101D0000FFF796F900282BD051463046FFF7A6F88A
:101D10002061A76861692846FEF7E2FE0146384661
:101D2000FEF7E8FF4946FFF799F807466561414627
:101D30003046FEF7D7FE3946FEF7D4FE0546E66983
:101D400001463046FFF774F900B92E46A4693146C2
:101D50002046FFF78BF900B934462046BDE8F88FDE
:101D600006F1004B5E4639465846FFF77FF928B129
:101D700051465846FFF772F82061CAE73E46C8E769
:101D8000002303614361704708B5016042608360CE
:101D9000FFF7F6FF08BD000010B5FEF7A1FE0446F0
:101DA00004E00C492046FEF79BFE04460A49204603
:101DB000FFF75CF90028F4D104E006492046FEF75D
:101DC00091FE044605492046FFF732F90028F4D178
:101DD000204610BD0000B44300003443000034C36B
:101DE00008B5FFF763F983B25A1E92B23A2A07D9AF
:101DF00000B23B339BB23A2B03D86FF03B0003E0B9
:101E00003C20B0F57A7F03DC10F57A7F03DB08BD58
:101E10004FF47A70FBE70148F9E700BF18FCFFFFB9
:101E20002DE9F04385B00446FFF736FEFFF7A4FE28
:101E3000294D21462846FFF77FFC2846FFF7C0FCC6
:101E4000264B0293264B0193264F0097264B274A99
:101E50004FF0814105F12000FFF716FF00244FF0FD
:101E60007C56DFF88C90CDF80890DFF88880CDF8AC
:101E70000480009723463246314605F14400FFF7BF
:101E800003FFCDF80890CDF8048000972346324632
:101E9000314605F16800FFF7F7FE002205F8042C33
:101EA000C5F88C40C5F89040C5F89440A5F8982036
:101EB000A5F89A20012285F8A020C5F8A440C5F80D
:101EC000A840C5F8AC400C4B1C600C4B1C60FFF7E5
:101ED000D9FD05B0BDE8F0837C0700200000164363
:101EE000000016C30AD7A33B0AD7A33C9A99993E90
:101EF0000000C8430000C8C30C0000207407002085
:101F00002DE9F843A54FA64E39463046FFF786FC2B
:101F10000020FFF78BFE341F20830120FFF786FE91
:101F200060833946B4F91800FFF7A6FE0546394626
:101F3000B4F91A00FFF7A0FE0746DFF86882D8F868
:101F4000009049462846FEF7CBFD9749FEF7D2FEA2
:101F500001464846FEF7C6FD0546C8F80000DFF812
:101F60004C82D8F8009049463846FEF7B9FD8E49B4
:101F7000FEF7C0FE01464846FEF7B4FDC8F8000073
:101F8000E5612062B4F91800FFF76CFE0546B4F96C
:101F90001A00FFF767FE01462846FEF7A3FD4FF043
:101FA0007C51FEF7A7FE0546D4F80C8080494046D8
:101FB000FEF7A0FE0746D4F8A89008F093FB294648
:101FC000FEF798FE01464846FEF78CFDC4F8A800CF
:101FD000D4F8AC90384608F0B9FB2946FEF78AFEE3
:101FE00001464846FEF77EFDC4F8AC0025F00041EE
:101FF000D4F8B000FEF776FDC4F8B00016F8043C43
:10200000032B17D8DFE813F0040018009800210113
:102010000023644A1360654A1360664A1360002116
:102020000846FFF761FC00210120FFF75DFC5C48DA
:10203000FFF73EFCBDE8F8835F4BD3F894405D4B5F
:102040001D6829462046FFF711F800285FD05B493C
:102050002846FEF747FD0146564B18602046FEF71E
:10206000E7FF08B1534B1C60534C4146D4F8900035
:10207000FFF792FE00F10042002104F12400FFF777
:102080001DFE05464B4B1F6801463846FEF72AFDEC
:10209000064629463846FEF723FD05463146484B9D
:1020A0001868FEF727FE80462946464B1868FEF75B
:1020B00021FE0746E269314604F14800FFF7FEFDC4
:1020C0008146226A294604F16C00FFF7F7FD0646B7
:1020D00049464046FEF706FD054631463846FEF7BE
:1020E00001FD06462846FFF77BFE0546A4F89C0046
:1020F0003046FFF775FEA4F89E0029460020FFF742
:10210000F3FBB4F99E100120FFF7EEFB92E729469E
:102110002046FEF78DFF0028A6D028492846FEF766
:10212000DFFC0146234B18602046FEF79FFF002886
:102130009AD0204B1C6097E741461F4BD3F8A00074
:10214000FFF72AFE044620F000404FF07F51FEF7D3
:102150006FFF00283AD01C4A136801331360132B19
:1021600037DD00210846FFF7BFFB00210120FFF704
:10217000BBFB114C012384F8A4300023204600F857
:10218000243B114A1360FFF7FBFD04F14800FFF701
:10219000F7FD04F16C00FFF7F3FD4BE70AD7A33B13
:1021A0007C0700200C0000209A99193E740700203B
:1021B00035FA8E3C70070020780700200000404070
:1021C00008000020040000206C070020204B0022A3
:1021D0001A6004F100421F4F00213846FFF76EFDE0
:1021E00005464FF07F51FEF785FD064605F1004894
:1021F000A7F1240457F8082C294607F12400FFF71B
:102200005DFD054657F8042C414607F14800FFF7ED
:1022100055FD074629463046FEF764FCFFF7E0FD12
:102220000546A4F89C0031463846FEF759FCFFF7F6
:10223000D7FDA4F89E0029460020FFF755FBB4F90E
:102240009E100120FFF750FBF4E6FFF7D9FBF1E603
:102250006C0700209C07002010B50A4CE368C4F806
:102260009030C4F894002046012300F8243BFFF787
:1022700087FD04F14800FFF783FD04F16C00FFF7D0
:102280007FFD10BD7807002038B50D461E4C014675
:10229000E068FEF727FCC4F8A00006E01B492046D2
:1022A000FEF71EFC184BC3F8A000174BD3F8A04054
:1022B00017492046FEF7DAFE0028EFD106E0134961
:1022C0002046FEF70FFC104BC3F8A0000E4BD3F8CE
:1022D000A04010492046FEF7ABFE0028EFD10A4C83
:1022E000C4F89450002384F8A4302046022300F858
:1022F000243BFFF745FD04F14800FFF741FD04F1E1
:102300006C00FFF73DFD38BD780700200000B443A6
:1023100000003443000034C338B5114C002323704F
:102320000025C4F89450A4F89C30A4F89E30FFF720
:1023300067FB04F12400FFF723FD04F14800FFF7D9
:102340001FFD04F16C00FFF71BFD064B1D60064BE3
:102350001D60064B1D60201DFFF7C2FA38BD00BF8F
:10236000780700200C000020740700207007002070
:1023700070B505460C4620F000402A49FEF758FE8D
:1023800028B124F000402749FEF752FE88B9264EB6
:10239000C6F89450C6F89840D6F890502349204685
:1023A000FEF7A8FC01462846FEF79CFBC6F8900005
:1023B00009E0FFF7B1FF24E01D492046FEF790FB3E
:1023C000194BC3F89000184BD3F890401949204698
:1023D000FEF74CFE0028EFD106E015492046FEF737
:1023E00081FB114BC3F890000F4BD3F8904012497A
:1023F0002046FEF71DFE0028EFD10B4B1B78012B6A
:1024000000D170BD084C2046012300F8243BFFF7A3
:10241000B7FC04F14800FFF7B3FC04F16C00FFF7D0
:10242000AFFCEEE7CDCCCC3D780700200AD7A33B2C
:102430000000B44300003443000034C3024B186072
:10244000024B1960704700BF080000200400002004
:1024500000238B4223D210B50DE0114A12783AB115
:10246000104C4FF0000C04F802C00F4A0124147005
:1024700001338B4212D2C25C0A2AEED00D2AECD074
:10248000074C94F800C0BCF17E0FF1D80CF1010E9E
:1024900084F800E0034C04F80C20E9E710BD704715
:1024A000AD080020B0080020AC08002008B50146A7
:1024B00001E001300860086803782C2BF9D0202B4C
:1024C000F7D005F011FF08BD0023024A1370024A3D
:1024D00013707047AD080020AC08002030B585B0FF
:1024E00004460023036043608360C36002A903A81D
:1024F00000F014FB18BB5F4B1B78002B34D05D4BF6
:1025000000221A7004225C495C4806F08BF8D8B1AE
:1025100004225B49594806F085F840B30422594922
:10252000564806F07FF800282FD004225649534819
:1025300006F078F8002831D10423237011E00299C5
:102540000398FFF785FFD6E7504B019301232370D3
:1025500001AD2846FFF7AAFF60602846FFF7A6FFF7
:10256000A0604B4B00221A70204605B030BD474B8F
:1025700001930223237001AD2846FFF797FF6060A7
:102580002846FFF793FFA060EBE7404B019303233E
:10259000237001A8FFF78AFF6060E2E704223D494B
:1025A000364806F03FF810B905232370D9E7042216
:1025B0003949324806F036F870B1042237492F48BD
:1025C00006F030F8D0B1042235492C4806F02AF83C
:1025D00010BB08232370C4E72C4B01930623237000
:1025E00001AD2846FFF762FF60602846FFF75EFFF7
:1025F000A0602846FFF75AFFE060B2E7234B019343
:102600000723237001AD2846FFF750FF606028467E
:10261000FFF74CFFA060A4E705222249174806F007
:1026200001F8C0B104222049144805F0FBFF00283E
:1026300097D1164B01930A23237001AD2846FFF76B
:1026400035FF60602846FFF731FFA0602846FFF79E
:102650002DFFE06085E7154B01930923237001AD41
:102660002846FFF723FF60602846FFF71FFFA060A2
:1026700077E700BFAC080020F0B70008B0080020E2
:10268000F8B7000800B8000808B80008B40800202F
:10269000AD08002010B8000818B8000820B80008DD
:1026A00028B8000830B8000838B80008B50800207D
:1026B000F0B589B004460D4616461F460E98FDF744
:1026C00093FECDE906013846FDF78EFECDE9040103
:1026D000039602952046FDF787FECDE90001074AE3
:1026E0008021074805F01CFF002801DC09B0F0BD7F
:1026F00081B2034800F0E2F9F8E700BF40B80008F3
:102700002C08002010B50446FDF702FD81B22046DA
:1027100000F0D4F910BD00000268204B9A4200D0AE
:1027200070472DE9F04186B003F5DA33DA6942F4F7
:102730000002DA61DB6903F400030193019B02AD3F
:10274000002402940394049405944FF48058CDF827
:1027500008800123039302270597114E294630462E
:1027600001F0E6FA22464146304601F0EBFB0A2032
:1027700001F052FA039404942946304601F0D8FA45
:102780000A2001F049FA22463946142001F09EFA47
:10279000142001F0ABFA06B0BDE8F081005C004007
:1027A0000008014008B500F52671D0F8D40200F009
:1027B0001AFA08BD08B501EB810300EBC303D3F897
:1027C0006421D0F8D40200F09EFA08BD08B501EBF0
:1027D000810300EBC3035A6AD0F8D40200F0F6FA82
:1027E00008BD08B5D0F8D40200F079FA08BD10B5DC
:1027F00004460121D0F8D40200F054FAD4F8D402EF
:1028000000F01DFA10BD08B5D0F8D40200F04DFA62
:1028100008BD08B5D0F8D40200F055FA08BD000094
:1028200070B505461B481C4B036008230371022347
:10283000837100238372C372037303F010F838BBF3
:102840000646144C402300221146204603F07EFF2A
:10285000802300221946204603F078FFC02300227F
:102860008121204603F072FF4FF480730022012182
:10287000204603F06BFF4FF4A07300228221204614
:1028800003F064FFC5F8C842C4F8D452304670BDA6
:102890000326FBE7500B0020005C004008B5D0F891
:1028A000C80203F050F8002008BD08B594461A4647
:1028B0006346D0F8C80203F006FE002008BD08B544
:1028C000D0F8C80203F041FE002008BD08B5D0F8DA
:1028D000C80203F0BCFE002008BD08B5D0F8C8024D
:1028E00003F0F5FE002008BDD0F8C83211F0800FCB
:1028F00008D101F07F0101EB810103EBC10393F8E3
:102900005201704701F07F0101EB810103EBC1032C
:10291000987C704708B5D0F8C80203F0E9FC0020A5
:1029200008BD08B5D0F8C80203F06BFE002008BD52
:1029300008B5D0F8C80203F03EFE002008BD08B577
:10294000D0F8C80203F054FE08BD000012230B802B
:10295000004870473000002004230B800048704777
:102960002C00002010B50A46034C2146034800F015
:1029700035FE204610BD00BF280E00205CB80008C0
:1029800010B50A46034C2146034800F027FE2046B6
:1029900010BD00BF280E00206CB8000810B50A4614
:1029A000034C2146034800F019FE204610BD00BF2D
:1029B000280E002078B8000810B50A46034C2146BE
:1029C000034800F00BFE204610BD00BF280E00207B
:1029D00080B8000810B50A46034C2146034800F0B1
:1029E000FDFD204610BD00BF280E002090B8000855
:1029F0000020014B1870704728100020202813D0A9
:102A0000212823D1124A13680B70C3F307204870A2
:102A1000C3F3074088701B0ECB7013790B71537989
:102A20004B7193798B7111E00B784A7843EA02235A
:102A30008A7843EA0243CA7843EA0263044A13608D
:102A40000B7913714B7953718B7993710020704717
:102A5000580000200020704710B50A68074B1A6024
:102A6000074B01221A70074C0749204601F047F82E
:102A7000204601F06BF8002010BD00BF2C10002094
:102A800029100020A80300203011002010B5074CA9
:102A900000220749204601F024F80649204601F0AB
:102AA0002EF8054B01221A70002010BDA80300204B
:102AB000301000203011002028100020144B1B780B
:102AC00003B370B50C46134AD2F8D432B03352F87F
:102AD0002330CBB1D3F81432C3B9B1F5807F01D91B
:102AE0004FF480740C4E22460146304605F0FBFD43
:102AF000084D22463146284600F0F3FF284601F0F3
:102B00000AF870BD032070470320FAE70120F8E7B8
:102B100028100020A8030020301000200346084A97
:102B2000127802F0FF0002B97047054A00201070C9
:102B3000044A1A60044B1B680B600120F4E700BFD5
:102B400029100020301100202C10002098B108B569
:102B500003460020C3F8B802C3F8C402C3F8D00289
:102B600009B1C3F8B412012183F89C121A701846F7
:102B7000FFF756FE08BD0320704710B582B0002352
:102B8000ADF80630B9B10446C0F8B812D0F8D42276
:102B9000CB6A43B1AE3250F82230DB6A0DF1060049
:102BA0009847C4F8D002D4F8D8320133C4F8D832E8
:102BB000002002B010BD0320FBE708B5FFF76EFE52
:102BC00008BD08B5D0F8B83213B11B68984708BDE6
:102BD0000020FCE708B5D0F8B8325B68984700B928
:102BE00008BD0320FCE738B5044600F2AA252846B4
:102BF00000F086F90123C4F89432B4F8B032C4F876
:102C0000983294F8AA1201F01F03012B07D0022B6F
:102C10000AD073B92946204600F046FB38BD294644
:102C2000204600F07CFBF9E72946204600F0B9FB7E
:102C3000F4E701F080012046FFF748FEEEE7F8B523
:102C40000446012380F89C320023C0F8943243608C
:102C5000C0F8A43280F8A032D0F8B832E3B15B6893
:102C6000E3B1002198470746D0B94023002211461E
:102C70002046FFF71AFE012684F863614025A4F878
:102C800060512B46002280212046FFF70EFE84F87B
:102C9000236025843846F8BD0027E6E70027E4E7EF
:102CA0000327E2E701740020704790F89C32042B60
:102CB00004D090F89C32DBB280F89D32042380F877
:102CC0009C320020704790F89C32042B01D00020E9
:102CD000704790F89D32DBB280F89C32F7E708B578
:102CE00090F89C32032B01D0002008BDD0F8B832F8
:102CF000002BF9D0DB69002BF6D09847F4E70020D1
:102D000070470020704738B504460D46002944D16D
:102D1000D0F89432032B01D0084638BDD0F8583192
:102D2000B0F86021934209D890F8AA3203F01F034B
:102D3000012B12D0022B1ED0084613E09B1AC0F8BC
:102D40005831D0F864111144C0F864119A4238BF68
:102D50001A4600F08DFC2846DFE790F8AE12FFF728
:102D6000CEFF18B994F89C32032B09D0204600F00E
:102D700087FC2846D1E790F8AE12FFF7C2FFF0E7D4
:102D800000F1AE0354F823301A69002AEED0C4F8DB
:102D9000D4021B6920469847E8E701F07F01FFF75E
:102DA000B0FF88B994F89C32032BB6D100F1AE0382
:102DB00054F823309A69002AAFD0C4F8D4029B6932
:102DC000294620469847A8E70020A6E738B50446DC
:102DD0000D4600294BD1D0F89432022B07D094F83D
:102DE000A00218B1002384F8A032284638BD8269B9
:102DF000038C9A420DD89A4219D094F89C32032B36
:102E000029D080212046FFF761FD204600F043FCD9
:102E1000E5E7D21A8261416A1944416200F00FFC71
:102E200000231A4619462046FFF782FDD7E742697C
:102E30009342E2D8D0F898329A42DED2002211466C
:102E400000F0FDFB0021C4F898120B460A4620460C
:102E5000FFF76EFDC3E7D4F8B832DA68002AD0D0A5
:102E60000022C4F8D422DB6820469847C9E741F025
:102E70008001FFF746FF88B994F89C32032BB5D147
:102E800000F1AE0354F823305A69002AAED0C4F8DA
:102E9000D4025B69294620469847A7E70020A5E7AA
:102EA0000B88027813440B800378184470474288DB
:102EB00003789A4218D930B583B004460D46ADF870
:102EC00006306388BDF806209A420AD20DF1060149
:102ED000FFF7E6FF4378052BF3D18378AB42F0D1BF
:102EE00000E0002003B030BD002070470346002002
:102EF00002E00130C0B201331A78002AF9D17047DC
:102F00000B7803704B7843708B78CA7843EA0223BE
:102F100043800B794A7943EA022383808B79CA790B
:102F200043EA0223C380704710B504468021FFF7AF
:102F3000CDFC00212046FFF7C9FC10BD30B583B0A1
:102F400004460D460023ADF806304A88130A013BBB
:102F5000062B00F2AA80DFE803F0041E32A8A88C3A
:102F60009900D0F8B4321B680DF10601007C984737
:102F7000EA88002A00F0A380BDF80630002B00F09C
:102F800099809A4228BF1A46ADF80620014620468D
:102F900000F047FB8CE0037C43B9D0F8B8329B6A61
:102FA0000DF10600984702234370E1E7D0F8B832EC
:102FB000DB6A0DF10600984702234370D8E7D2B2CE
:102FC000052A52D8DFE802F003101D2A3744D0F852
:102FD000B4325B6823B10DF10601007C9847C7E766
:102FE0002946FFF7A1FF63E0D0F8B4329B6823B114
:102FF0000DF10601007C9847BAE72946FFF794FFD8
:1030000056E0D0F8B432DB6823B10DF10601007C44
:103010009847ADE72946FFF787FF49E0D0F8B4327B
:103020001B6923B10DF10601007C9847A0E72946F2
:10303000FFF77AFF3CE0D0F8B4325B6923B10DF1C1
:103040000601007C984793E72946FFF76DFF2FE0C4
:10305000D0F8B4329B6923B10DF10601007C98478A
:1030600086E72946FFF760FF22E02946FFF75CFF6D
:103070001EE0037C33B9D0F8B8325B6B0DF106006B
:10308000984775E72946FFF74FFF11E0037C43B9E6
:10309000D0F8B8321B6B0DF1060098470723437038
:1030A00066E72946FFF740FF02E02946FFF73CFFAD
:1030B00003B030BD29462046FFF736FFF8E720462B
:1030C00000F0DEFAF4E738B504468B88F3B9CB8814
:1030D000E3B94B887F2B19D803F07F0590F89C3219
:1030E000032B0CD080F89E522946FFF713FC204694
:1030F00000F0C6FA35B1022384F89C3209E0FFF7EC
:1031000013FF06E0012384F89C3202E02046FFF71B
:103110000BFF38BD70B504460E468D782F4B1D70E1
:10312000012D10D890F89C32DAB2022B0FD0032A6E
:1031300026D0FFF7F9FE294B19782046FFF74AFD04
:103140000325284670BDFFF7EFFE0325F9E7A5B17B
:1031500045602946FFF735FD054638B13146204622
:10316000FFF7E2FE022384F89C32EAE7204600F0F3
:1031700087FA032384F89C32E3E700F081FAE0E762
:10318000CDB141688D4225D0C9B2FFF723FD134B65
:10319000197861602046FFF714FD0546B0B131464D
:1031A0002046FFF7C1FE21792046FFF713FD0223D9
:1031B00084F89C32C5E7022380F89C32456029469A
:1031C000FFF708FD204600F05BFABAE7204600F062
:1031D00057FAB6E700F054FA0025B2E730120020A3
:1031E00008B5CB88012B0BD190F89C32DAB2022BB8
:1031F00009D9032A11D10122011D00F012FA01E0C0
:10320000FFF792FE08BD52B23AB10146002341F8E1
:10321000083F012200F005FAF4E7FFF785FEF1E729
:1032200008B590F89C32013B022B12D8CB88022BB8
:103230000CD10123C360D0F8A4320BB10323C360C7
:10324000022200F10C0100F0ECF908BDFFF76CFE62
:10325000FBE7FFF769FEF8E708B54B88012B04D0C0
:10326000022B07D0FFF760FE08BDC0F8A43200F0C3
:1032700007FAF9E78B881B0A80F8A03200F000FA01
:10328000F2E708B590F89C32013B022B09D84B8835
:10329000012B00D008BD0023C0F8A43200F0F0F9E3
:1032A000F8E7FFF741FEF5E738B50C7804F0600465
:1032B000202C06D0402C04D06CB1FFF735FE002442
:1032C00007E0D0F8D432AE3350F823309B689847EB
:1032D0000446204638BD4D78092D1DD8DFE805F09D
:1032E00012191C161C08051C0F0BFFF727FEF0E730
:1032F000FFF7E9FEEDE7FFF70DFF0446E9E7FFF70B
:103300006FFFE6E7FFF78CFF2C46E2E7FFF7A4FF2D
:10331000DFE7FFF7B6FFDCE7FFF706FED9E770B59A
:1033200005460C460B7803F06003202B07D0402B9A
:1033300005D023B1FFF7F8FD0026304670BD95F8A3
:103340009C32013B022B26D82179012905D921463F
:103350002846FFF7E9FD0026EFE72846FFF7CFFCF8
:1033600068B900F1AE0255F82220916889B1C5F81C
:10337000D4029368214628469847064600E0032673
:10338000E388002BD9D1002ED7D1284600F078F958
:10339000D3E70326F4E721462846FFF7C5FD0026BC
:1033A000CBE72DE9F04106460D468B88DFB20C785D
:1033B00004F06004202C08D0402C06D0DCB1FFF7CC
:1033C000B3FD00242046BDE8F08139463046FFF7C2
:1033D00098FC0446002840F0FD80C6F8D40200F1B5
:1033E000AE0356F823309B68002BEBD029463046BD
:1033F00098470446E6E791F80180B8F1010F31D013
:10340000B8F1030F05D0B8F1000F67D0FFF78CFDBE
:10341000D8E790F89C32DAB2022B04D0032A12D0FB
:10342000FFF782FDCEE70FB1802F04D12946304649
:10343000FFF77AFDC6E73946FFF748FA80213046A4
:10344000FFF744FABEE74B8823B91FB1802F01D0A4
:10345000CB881BB1304600F013F9B3E73946FFF7CC
:1034600035FAF7E790F89C32DAB2022B04D0032A3F
:1034700012D0FFF759FDA5E70FB1802F04D12946DF
:103480003046FFF751FD9DE73946FFF71FFA8021CF
:103490003046FFF71BFA95E74B88002B92D117F0C7
:1034A0007F0F17D1304600F0EBF839463046FFF772
:1034B00028FC002886D1C6F8D40200F1AE0256F8E6
:1034C00022209268002A00F08780294630469047E3
:1034D000044677E73946FFF700FAE3E790F89C22C5
:1034E000D1B2022A06D003292AD02946FFF71CFDB3
:1034F000444667E70FB1802F14D113F0800F16D127
:1035000007F07F0707EB8707B90001F5A871314481
:103510000431002301F80E3F0222304600F081F80A
:1035200044464FE72946FFF7FFFC44464AE707F0C9
:103530007F0707EB8707B900103131440431E8E712
:103540005BB2002B20DB07F00F0202EB820200EBE4
:10355000820292F863412CB3002B27DB07F07F0334
:1035600003EB83039C0004F5A874344404340FB1C6
:10357000802F24D10023A373022204F10E013046D0
:1035800000F04FF844461DE707F00F0202EB8202FD
:1035900000EB820292F82340002CDDD12946FFF790
:1035A000C3FC0FE72946FFF7BFFC0BE707F07F03DB
:1035B00003EB83039C00103434440434D7E73946CA
:1035C0003046FFF791F910B10123A373D4E700232C
:1035D000A373D1E70024F5E60446F3E600B370B523
:1035E0000D4616460446FFF781FC01304300B3F553
:1035F000007F06D89BB233802B7003236B700223AD
:103600000AE04FF40073F6E7EA5401345A1CD2B2D0
:103610000021A9540233DBB22278002AF4D170BD14
:10362000704708B513460222C0F8942243614162F4
:1036300083610A460021FFF774F9002008BD08B530
:1036400013460A460021FFF76CF9002008BD08B5B3
:1036500013460322C0F89422C0F85431C0F8641114
:10366000C0F858310A460021FFF762F9002008BD72
:1036700008B513460A460021FFF75AF9002008BD95
:1036800008B50422C0F8942200231A461946FFF711
:1036900048F9002008BD08B50522C0F8942200238F
:1036A0001A461946FFF744F9002008BD10B5D0F8B6
:1036B000D43203F1B00250F822408CB100EB82000A
:1036C00043687BB194F80002FF280DD09B6894F802
:1036D000012221469847FF2384F80032002010BDC4
:1036E0000320FCE70020FAE70020F8E70A23038024
:1036F00000487047DC000020F8B506460F4F8221D5
:103700003846FFF7D4FB054601213846FFF7CFFBCB
:10371000044681213846FFF7CAFB0DB11022AA7179
:103720001CB1402222710022627118B14022027144
:1037300000224271432333800048F8BD600000201E
:10374000F8B506460F4F82213846FFF7B0FB054615
:1037500001213846FFF7ABFB044681213846FFF7CD
:10376000A6FB0DB11022AA711CB1402222710022C9
:10377000627118B1402202710022427143233380EA
:103780000048F8BD60000020F8B506460F4F8221C2
:103790003846FFF78CFB054601213846FFF787FBCB
:1037A000044681213846FFF782FB0DB11022AA7131
:1037B0001CB1002222710222627118B10022027132
:1037C00002224271432333800048F8BD600000208C
:1037D00038B5D0F8D432B03350F8235095B1044600
:1037E000FFF7ADF8C5F80C02D4F8D432B03304EBCF
:1037F00083046368DB6805F50371D5F80402984714
:10380000002038BD0320FCE738B5D0F8C852D0F806
:10381000D432B03350F8234084B301F00F0303EBEC
:10382000830200EB820252694AB103EB830C05EB81
:10383000CC052D6AB2FBF5FC05FB1C2292B10023DE
:10384000C4F81432D0F8D432B03300EB83004368AC
:103850001B69ABB10A4604F50471D4F80802984715
:10386000002038BD03EB830300EB830300245C617D
:1038700023462246FFF755F82046F2E70320F0E7FB
:103880000020EEE7F0B583B0D0F8D43203F1B002F7
:1038900050F8227000228DF80720ADF80420002F88
:1038A00078D004460D46097811F0600634D0202EF9
:1038B00069D1EA882AB311F0800F0ED16B7887F8AE
:1038C0000032EA883F2A1AD8D2B287F80122394654
:1038D0002046FFF7BCFE002659E0B03300EB83031F
:1038E0005B689B68394668789847EA88072A28BF4A
:1038F000072239462046FFF794FE002647E0402283
:10390000E3E7B03300EB83035B689B680022294642
:103910006878984700263AE06F780B2F2ED8DFE8BA
:1039200007F006362D2D2D2D2D2D2D2D152490F83B
:103930009C32032B04D02946FFF7F6FA032626E033
:10394000022201A9FFF76DFE3E4620E090F89C326E
:10395000032B04D02946FFF7E7FA032617E00122DC
:103960000DF10701FFF75DFE11E090F89C32032B8B
:103970000DD02946FFF7D8FA032608E02946FFF7BD
:10398000D3FA032603E02946FFF7CEFA0326304692
:1039900003B0F0BD0326FAE738B504468121FEF7EF
:1039A0008EFF002584F8375001212046FEF787FF5F
:1039B00084F8775182212046FEF781FF84F84B502E
:1039C0006564D4F8D43203F1B00254F8222062B115
:1039D000B03304EB83035B685B689847D4F8D43258
:1039E000B03344F82350C4F8BC52002038BD000066
:1039F00070B50446344D4FF407720021284604F098
:103A000009FED4F8D432B03344F82350C4F8BC5281
:103A1000237C002B3AD14FF40073022281212046EF
:103A2000FEF743FF012584F837504FF4007302225C
:103A300029462046FEF739FF84F877511023636446
:103A40000823032282212046FEF72FFF012384F85A
:103A50004B301D4D0026C5F80462D4F8D432B03383
:103A600004EB83035B681B689847C5F81462C5F8CC
:103A70001862D5F8042222B3257CDDB94FF4007317
:103A800001212046FEF754FF284670BD4023022244
:103A900081212046FEF709FF012584F83750402395
:103AA000022229462046FEF700FF84F877511023B2
:103AB0006364C5E7402301212046FEF739FF002556
:103AC000E2E70225E0E700BF3009002039B1D0F875
:103AD000D432B03300EB83004160002070470320F4
:103AE0007047D0F8D432B03350F823302BB1C3F83C
:103AF0000812C3F810220020704703207047D0F846
:103B0000D432B03350F823301BB1C3F80412002074
:103B100070470320704708B5D0F8D432B03350F85E
:103B200023208AB1D2F814320BB1012008BD012341
:103B3000C2F81432D2F810328362D2F808228121FE
:103B4000FEF7EFFE0020F1E70320EFE710B5D0F815
:103B5000D432B03350F8232092B1047C44B94FF4EE
:103B60000073D2F804220121FEF7E2FE204610BDC8
:103B70004023D2F804220121FEF7DAFE0024F5E703
:103B80000324F3E710B504460E4B1A784FF47A730A
:103B9000B3FBF2F30C4A1068B0FBF3F000F0B4F89A
:103BA00068B90F2C01D901200AE0002221464FF00C
:103BB000FF3000F08BF8054B1C60002000E0012076
:103BC00010BD00BFE600002000000020E80000203B
:103BD00008B5074A136843F010031360032000F090
:103BE00063F80F20FFF7CEFFFDF76AFC002008BD49
:103BF00000200240034A1168034B1B780B441360FA
:103C0000704700BF34120020E6000020014B186806
:103C1000704700BF3412002038B50446FFF7F6FFA6
:103C20000546B4F1FF3F02D0044B1B781C44FFF75C
:103C3000EDFF401BA042FAD338BD00BFE6000020D4
:103C4000002808DB0901C9B200F1604000F56140BD
:103C500080F80013704700F00F000901C9B2014B52
:103C60001954704714ED00E000B500F00700C0F1F2
:103C7000070CBCF1040F28BF4FF0040C031D062BEA
:103C80000FD9C31E4FF0FF3E0EFA0CF021EA0001DF
:103C900099400EFA03FE22EA0E0241EA02005DF8A4
:103CA00004FB0023EEE70000074AD36823F4E06337
:103CB0001B041B0C000200F4E060034343F0BF63ED
:103CC00043F40033D360704700ED00E010B50446C4
:103CD000054BD868C0F30220FFF7C6FF0146204617
:103CE000FFF7AEFF10BD00BF00ED00E0002807DBCE
:103CF00000F01F02400901239340024A42F820309D
:103D0000704700BF00E100E00138B0F1807F0BD2C6
:103D10004FF0E0235861054AF02182F8231000207B
:103D2000986107221A6170470120704700ED00E09A
:103D300070B582B00024A4469EE07C4DAB4214D006
:103D40000CD8A5F58015AB420FD005F57025AB4218
:103D50000BD0A5F58015AB421FD106E0744DAB42E8
:103D600003D005F58035AB4217D18B68A3B1012B89
:103D70000DD04261082410E0CC680EE0CC68043419
:103D80000BE0CC68083408E0CC680C3405E0026134
:103D9000082402E0002400E00424BEF1FF0F37D81D
:103DA00006464FEA8C0233680F25954023EA050347
:103DB00004FA02F2134333604B6813F0805F59D06A
:103DC0005C4B9A6942F001029A619B6903F001031E
:103DD0000193019B4FEA9C02951C574B53F82560B9
:103DE0000CF00305AD000F23AB4026EA0306534B4E
:103DF000984214D003F58063984279D003F580632C
:103E0000984277D003F58063984206D0042307E0F8
:103E1000061DACF108029200C5E7032300E0002371
:103E2000AB4033430232444D45F822304B6813F423
:103E3000801F61D0424A936843EA0E0393604B6847
:103E400013F4001F5ED03E4AD36843EA0E03D360EA
:103E50004B6813F4003F5BD0394A536843EA0E03C2
:103E600053604B6813F4803F58D0354A136843EAD7
:103E70000E0313600CF1010C0B6833FA0CF253D0F3
:103E8000012202FA0CF203EA020E32EA0303F1D134
:103E90004B68122B3FF651AF122B3FF67EAF01A5B8
:103EA00055F823F06B3D0008793D0008833D00087C
:103EB000953D00089B3D00089B3D00089B3D000888
:103EC0009B3D00089B3D00089B3D00089B3D000872
:103ED0009B3D00089B3D00089B3D00089B3D000862
:103EE0009B3D00089B3D00087D3D0008893D000882
:103EF000012395E7022393E7114A936823EA0E030F
:103F000093609CE70E4AD36823EA0E03D3609FE7D1
:103F10000B4A536823EA0E035360A2E7084A13686A
:103F200023EA0E031360A5E702B070BD0000221063
:103F30000000311000100240000001400008014064
:103F4000000401400AB10161704709040161704732
:103F500003685A6912F4806F01D1002070476FF432
:103F600080625A6100230363202280F83D2080F89C
:103F70003E30026C42F00402026480F83C300120C2
:103F800070472DE9F04106460C46174698463BE03F
:103F9000FFF73CFE069BC01A404502D8B8F1000F5F
:103FA00032D1012D18D033689B6924EA03039BB2F8
:103FB000B3FA83F35B099F4226D1002333632022A7
:103FC00086F83D2086F83E30326C42F020023264A2
:103FD00086F83C30012027E033685B6924EA03035C
:103FE0009BB2B3FA83F35B09E5E733685B6924EAC4
:103FF000030C1FFA8CFCBCFA8CFC4FEA5C1C674576
:1040000011D1B8F1FF3FC3D1C4F30745012DECD066
:1040100033689B6924EA030C1FFA8CFCBCFA8CFC05
:104020004FEA5C1CEBE70020BDE8F0812DE9F84386
:1040300005460E469046994653E01A6842F40072CF
:104040001A602B686FF480625A6100232B63202270
:1040500085F83D2085F83E302A6C42F004022A643F
:1040600085F83C3001204AE0FFF7D0FDA0EB0900C5
:10407000404502D8B8F1000F33D1012F17D02B687B
:104080009B6926EA03039BB2003B18BF012343B39D
:1040900000232B63202285F83D2085F83E302A6CD2
:1040A00042F020022A6485F83C30012027E02B688A
:1040B0005B6926EA03039BB2003B18BF0123E6E7D6
:1040C0002B689C6926EA0404A4B2003C18BF0124B2
:1040D000A4B12B685A6912F4806FAED1B8F1FF3FDA
:1040E000C2D1C6F30747012FEAD12B685C6926EAE3
:1040F0000404A4B2003C18BF0124E9E70020BDE895
:10410000F88370B504460D46164623685B6913F0C4
:10411000800F21D12046FFF71BFFF8B9B5F1FF3F13
:10412000F3D0FFF773FD801BA84201D8002DECD11E
:1041300023685B6913F0800FE7D1002323632022FB
:1041400084F83D2084F83E30226C42F02002226444
:1041500084F83C30012000E0002070BD0120FCE725
:104160002DE9F04385B004460D4691461F46DDF823
:1041700030800D9E0368196841F4807119600096C3
:10418000434600224FF00111FFF7FBFE60B92368A0
:1041900005F0FE051D613346424626492046FFF7DD
:1041A00045FF68B1012008E023681B6813F4807F95
:1041B00002D04FF400732364032005B0BDE8F08300
:1041C0000023039323685A6903929B690393039B1B
:1041D000324641462046FFF794FF30B9012F0FD1F8
:1041E00023685FFA89F61E61E7E7236C042B01D090
:1041F0000120E2E72268136843F400731360F7E7D5
:1042000023684FEA19221A61324641462046FFF7D9
:1042100078FF20B923685FFA89F61E61CDE7236C29
:10422000042B01D00120C8E72268136843F400730F
:104230001360F7E7020001002DE9F04784B004465F
:104240000D46164699460C9FDDF8348002681368C7
:1042500043F4806313600368196841F48071196046
:10426000CDF800803B4600224FF00111FFF789FE98
:1042700070B95FFA85FA236805F0FE051D614346B3
:104280003A4641492046FFF7D1FE68B1012008E0D7
:1042900023681B6813F4807F02D04FF400732364FB
:1042A000032004B0BDE8F0870023039323685A6914
:1042B00003929B690393039B424639462046FFF7CE
:1042C00020FF80B9B9F1010F18D12368F6B21E6141
:1042D000424639462046FFF714FF68B3236C042B8F
:1042E00024D00120DDE7236C042B01D00120D8E786
:1042F0002268136843F400731360F7E72368320AF7
:104300001A61424639462046FFF7FBFE18B923687A
:10431000F6B21E61DCE7236C042B01D00120C0E75C
:104320002268136843F400731360F7E72268136888
:1043300043F400731360D4E72268136843F4807376
:104340001360CDF800803B4600224FF0011120465B
:10435000FFF717FE68B922684AF00103136143466C
:104360003A4609492046FFF761FE002899D001200E
:1043700097E723681B6813F4807F02D04FF4007323
:10438000236403208DE700BF0200010070B50446DE
:104390000D46164623685B6913F0040F21D12046B1
:1043A000FFF7D6FDF8B9B5F1FF3FF3D0FFF72EFCCC
:1043B000801BA84201D8002DECD123685B6913F063
:1043C000040FE7D100232363202284F83D2084F8E2
:1043D0003E30226C42F02002226484F83C300120FE
:1043E00000E0002070BD0120FCE770B504460D46DA
:1043F000164614E06FF010025A6100232363202256
:1044000084F83D2084F83E30226C226484F83C30ED
:10441000012025E023685B6913F0400F10D023686A
:10442000586910F0400F1AD1586910F0100FE1D1FF
:10443000FFF7ECFB801BA842ECD8002DEFD1E9E799
:1044400000232363202284F83D2084F83E30226C30
:1044500042F02002226484F83C30012000E0002079
:1044600070BD0000002800F0CC8070B5044690F8C4
:104470003D30002B77D0242384F83D302268136828
:1044800023F0010313602268136843F400431360B0
:104490002268136823F40043136000F01FFE626873
:1044A0005A4B9A4264D85A4B98428CBF002301233E
:1044B000002B40F0A8805749A1FB00318B0C2568E8
:1044C0006A6822F03F0242EA91426A6021680A6A01
:1044D00022F03F0266684D4DAE424FD80133134380
:1044E0000B622168CA6922F44F4222F0FF0265681C
:1044F000464B9D424CD8431E6D00B3FBF5F3013390
:1045000040F6FC70034278D0C3F30B031A43CA6130
:1045100021680B6823F0C003E269206A0243134359
:104520000B6021688B6823F4034323F0FF032269A7
:10453000E068024313438B602168CB6823F0FF03DC
:104540006269A06902431343CB602268136843F099
:104550000103136000202064202384F83D30206391
:1045600084F83E0070BD80F83C30FCF7CBFF82E75A
:10457000294B98428CBF0023012399E74FF496758D
:1045800005FB03F3254DA5FB03539B090133A6E768
:10459000A668BEB9431E05EB450CB3FBFCF3013323
:1045A000C3F30B03B3FA83F35B0943BBC6B9431EE2
:1045B00005EB4505B3FBF5F30133C3F30B0343F4FC
:1045C0000043A3E7431E05EB850C0CEB8C0CB3FBFF
:1045D000FCF30133C3F30B03B3FA83F35B09E4E7A2
:1045E000431E05EB850505EB8505B3FBF5F30133AC
:1045F000C3F30B0343F4404388E7042386E7012316
:1046000084E7012070470120ACE700BFA0860100CD
:104610007F841E0083DE1B43FF083D00D34D6210E4
:104620002DE9F04383B004460F46904699460C9E10
:10463000FFF7ECFA94F83D20202A03D0022003B0C3
:10464000BDE8F08305460090192301224A4920461F
:10465000FFF797FC002840F0898094F83C30012B4C
:1046600000F08680012384F83C3023681A6812F039
:10467000010F03D11A6842F001021A602268136820
:1046800023F400631360212384F83D30402384F831
:104690003E30002323640A9B6362BDF82C3063859F
:1046A000638D2385354BE362019500964B46424668
:1046B00039462046FFF754FD00285BD1238D002B9F
:1046C00035D02A4631462046FFF71BFD20BB626AE3
:1046D000236812781A61626A531C6362218D013962
:1046E00089B22185638D9BB2013B9BB263852368B0
:1046F000586910F0040FE1D00029DFD052781A6118
:10470000636A01336362238D013B2385638D9BB212
:10471000013B9BB26385D1E7236C042B01D00120C0
:104720008DE72268136843F400731360F7E72A46A5
:1047300031462046FFF72AFE50B1236C042B01D0EE
:1047400001207CE72268136843F400731360F7E7E5
:104750002268136843F400731360202384F83D300B
:10476000002384F83E3084F83C3068E7022066E796
:10477000022064E7012062E7020010000000FFFF52
:104780002DE9F04389B004460F4690469946129EA3
:1047900000230793FFF73AFA94F83D30202B04D01A
:1047A0000227384609B0BDE8F0830546009019237A
:1047B000012297492046FFF7E4FB002840F07E8164
:1047C00094F83C30012B00F07B81012384F83C30CD
:1047D00023681A6812F0010F03D11A6842F001022F
:1047E0001A602268136823F400631360222384F89C
:1047F0003D30402384F83E3000232364109B6362E5
:10480000BDF844306385638D2385824BE362019557
:1048100000964B46424639462046FFF70DFD0746B7
:10482000002840F04F81238D5BB9039323685A69B8
:1048300003929A690392039A1A6842F400721A600A
:1048400076E0012B0FD0022B21D02268136843F4AD
:10485000806313600023069323685A6906929B695C
:104860000693069B64E02268136823F48063136058
:1048700072B60023049323685A6904929A690492D9
:10488000049A1A6842F400721A6062B650E0226814
:10489000136843F40063136072B600230593236822
:1048A0005A6905929A690592059A1A6822F48062FB
:1048B0001A6062B63CE02A4631462046FFF795FD75
:1048C000002840F0018123681A69636A1A70636ADC
:1048D00001336362238D013B2385638D9BB2013BD2
:1048E0009BB2638524E072B62268136843F40073B8
:1048F000136023681A69636A1A70636A013363621A
:10490000238D013B2385638D9BB2013B9BB2638565
:1049100062B623681A69636A1A70636A0133636254
:10492000238D013B2385638D9BB2013B9BB2638545
:10493000238D002B00F0B980032B00F28280012B25
:10494000B9D0022B0AD100953346002232492046C5
:10495000FFF717FB0028C6D0012722E70095334652
:1049600000222D492046FFF70CFB002840F0AE80C6
:104970002268136823F48063136072B623681A698F
:10498000636A1A70636A01336362238D013B238576
:10499000638D9BB2013B9BB26385204B1B68DB0898
:1049A0001F4AA2FB03231B0A03EB8303C3EBC303CE
:1049B0000793079B013B0793079B002B32D023688B
:1049C0005A6912F0040FF4D01A6842F400721A60A7
:1049D00023681A69636A1A70636A01336362238DFC
:1049E000013B2385638D9BB2013B9BB2638562B61D
:1049F00023681A69636A1A70636A01336362238DDC
:104A0000013B2385638D9BB2013B9BB263858FE79E
:104A1000020010000000FFFF040001000000002061
:104A200089B5F8142363202284F83D2084F83E30B1
:104A3000226C42F02002226462B684F83C300127E6
:104A4000AFE62A4631462046FFF7CFFC00283FD18B
:104A500023681A69636A1A70636A01336362228D7C
:104A6000013A92B22285638D9BB2013B9BB2638572
:104A70002368596911F0040F3FF45AAF032A0FD08D
:104A800023681A69636A1A70636A01336362238D4B
:104A9000013B2385638D9BB2013B9BB2638547E756
:104AA0001A6822F480621A60EAE7202384F83D3015
:104AB000002384F83E3084F83C3072E6022770E62A
:104AC00002276EE601276CE601276AE6012768E601
:104AD000012766E682B0084B1B68084AA2FB032345
:104AE0005B0A00FB03F3019300BF019B5A1E019276
:104AF000002BF9D102B0704700000020D34D6210A6
:104B0000002800F0F18170B582B00446036813F00C
:104B1000010F2CD0994B5B6803F00C03042B1DD0C4
:104B2000964B5B6803F00C03082B12D06368B3F557
:104B3000803F41D0002B55D103F1804303F504336E
:104B40001A6822F480321A601A6822F480221A60ED
:104B500037E08A4B5B6813F4803FE7D0874B1B68D4
:104B600013F4003F03D06368002B00F0BF8123687B
:104B700013F0020F75D0814B5B6813F00C0F5FD000
:104B80007E4B5B6803F00C03082B54D02369002B89
:104B900000F08A807A4B01221A60FFF737F8054649
:104BA000764B1B6813F0020F75D1FFF72FF8401BEF
:104BB0000228F5D903209EE1704A136843F480333C
:104BC0001360636843B3FFF721F805466B4B1B681E
:104BD00013F4003FCBD1FFF719F8401B6428F5D937
:104BE000032088E1B3F5A02F09D0644B1A6822F4A2
:104BF00080321A601A6822F480221A60E1E703F119
:104C00008043A3F53C331A6842F480221A601A6884
:104C100042F480321A60D4E7FEF7F8FF0546574B9E
:104C20001B6813F4003FA2D0FEF7F0FF401B64287E
:104C3000F5D903205FE1514B5B6813F4803FA5D1A8
:104C40004E4B1B6813F0020F03D02369012B40F079
:104C50004F814A4A136823F0F803616943EAC103AC
:104C60001360236813F0080F33D0A369002B5CD0C6
:104C7000434B0122C3F88024FEF7C8FF05463F4B93
:104C80005B6A13F0020F21D1FEF7C0FF401B022820
:104C9000F5D903202FE1394A136823F0F80361693D
:104CA00043EAC1031360DCE7354B00221A60FEF7CC
:104CB000ADFF0546314B1B6813F0020FD1D0FEF754
:104CC000A5FF401B0228F5D9032014E10120FFF7BE
:104CD00001FF236813F0040F00F09680274BDB6977
:104CE00013F0805F34D1254BDA6942F08052DA61EB
:104CF000DB6903F080530193019B0125214B1B6865
:104D000013F4807F26D0E368012B3DD0002B53D1D4
:104D100003F1804303F504331A6A22F001021A6298
:104D20001A6A22F004021A6233E0154B0022C3F81B
:104D30008024FEF76BFF0546104B5B6A13F0020FF1
:104D4000C7D0FEF763FF401B0228F5D90320D2E04D
:104D50000025D3E70B4A136843F480731360FEF712
:104D600055FF0646074B1B6813F4807FCBD1FEF737
:104D70004DFF801B6428F5D90320BCE000100240E1
:104D800000004242007000405F4A136A43F0010392
:104D90001362E36833B3FEF739FF06465A4B1B6ACA
:104DA00013F0020F2FD1FEF731FF801B41F2883341
:104DB0009842F3D903209EE0052B09D0524B1A6A82
:104DC00022F001021A621A6A22F004021A62E0E773
:104DD0004D4B1A6A42F004021A621A6A42F001024A
:104DE0001A62D6E7FEF712FF0646474B1B6A13F01E
:104DF000020F08D0FEF70AFF801B41F28833984269
:104E0000F3D9032077E0E5B9E369002B72D03E4A7D
:104E1000526802F00C02082A56D0022B17D03B4BE6
:104E200000221A66FEF7F2FE0446374B1B6813F0A9
:104E3000007F47D0FEF7EAFE001B0228F5D90320C9
:104E400059E0314AD36923F08053D361DCE72F4B1B
:104E500000221A66FEF7DAFE05462B4B1B6813F09C
:104E6000007F06D0FEF7D2FE401B0228F5D90320B2
:104E700041E0236AB3F5803F1AD023494B6823F4FD
:104E80007413226A606A024313434B601F4B012272
:104E90001A66FEF7BBFE04461B4B1B6813F0007F2F
:104EA0000ED1FEF7B3FE001B0228F5D9032022E045
:104EB000154A536823F40033A1680B435360DCE7C1
:104EC000002018E0002016E0012B16D00E4B5B6886
:104ED00003F48031226A914211D103F47013626AA3
:104EE00093420ED1002006E001207047012002E02D
:104EF000012000E0002002B070BD0120FBE701208E
:104F0000F9E70120F7E700BF00100240000042422D
:104F10000F4B5B6803F00C02082A01D00D48704764
:104F2000C3F383420C49885C13F4803F0BD0084BD9
:104F30005B68C3F34043094AD35C064A02FB00F0B6
:104F4000B0FBF3F07047064B03FB00F0704700BF67
:104F50000010024000127A00C0B80008BCB8000877
:104F600000093D00002800F0A08070B50D46044601
:104F7000524B1B6803F007038B420BD24F4A136856
:104F800023F007030B431360136803F007038B42FE
:104F900040F08D80236813F0020F17D013F0040F38
:104FA00004D0474A536843F4E0635360236813F026
:104FB000080F04D0424A536843F460535360404A98
:104FC000536823F0F003A1680B435360236813F088
:104FD000010F31D06368012B20D0022B25D0384A35
:104FE000126812F0020F64D035494A6822F00302B9
:104FF00013434B60FEF70AFE0646314B5B6803F035
:105000000C036268B3EB820F16D0FEF7FFFD801B26
:1050100041F288339842F0D9032045E0284A1268CB
:1050200012F4003FE0D101203EE0254A126812F060
:10503000007FD9D1012037E0204B1B6803F0070324
:10504000AB420AD91D4A136823F007032B431360B0
:10505000136803F00703AB422DD1236813F0040F4C
:1050600006D0174A536823F4E063E1680B435360AA
:10507000236813F0080F07D0114A536823F46053D4
:10508000216943EAC1035360FFF742FF0C4B5B68A1
:10509000C3F303130B4AD35CD8400B4B18600B4B84
:1050A0001868FEF76FFD002070BD012070470120D9
:1050B000FAE70120F8E70120F6E700BF00200240F0
:1050C00000100240ACB8000800000020E8000020FA
:1050D000014B1868704700BF0000002008B5FFF7BB
:1050E000F7FF044B5B68C3F30223034AD35CD84049
:1050F00008BD00BF00100240A4B8000830B4026A26
:10510000036A23F0010303624568836923F0730394
:105110000C681C4322F002028B6813430C4A904235
:1051200006D0456084614A684263036230BC7047C0
:10513000026A22F00402026223F00803CA681343E1
:1051400025F440754A692A438D691543E9E700BF94
:10515000002C014030B4036A026A22F480720262B9
:105160004568C26922F073020C68144323F400738B
:105170008A6843EA02230E4A904206D04560C46121
:105180004A68C263036230BC7047026A22F48062DC
:10519000026223F40063CA6843EA022325F44055FF
:1051A0004A6945EA02158A6945EA0215E6E700BF41
:1051B000002C014030B4036A026A22F48052026279
:1051C0004468C26922F4E6420D6842EA052223F4EB
:1051D00000538D6843EA0533074DA84206D044606A
:1051E000C2614A680264036230BC704724F48044A0
:1051F0004D6944EA8514F2E7002C014003681D4A1A
:1052000090420AD0B0F1804F07D0A2F5943290427C
:1052100003D002F58062904203D123F070034A6804
:105220001343144A90420AD0B0F1804F07D0A2F540
:105230009432904203D002F58062904203D123F46D
:105240004073CA68134323F080034A6913438A6892
:10525000C2620A688262074A904207D0026842F03E
:105260000402026001224261036070470A6902631E
:10527000F4E700BF002C014040B310B5044690F89D
:105280003D30F3B1022384F83D30214651F8040B40
:10529000FFF7B4FF012384F8463084F83E3084F8E9
:1052A0003F3084F8403084F8413084F8423084F84C
:1052B000433084F8443084F8453084F83D30002091
:1052C00010BD80F83C30FCF79FF9DBE70120704708
:1052D000002856D070B50D46044690F83D30002B9E
:1052E0004AD0022384F83D302268936823F4804337
:1052F00023F007039360214651F8040BFFF77EFF6C
:1053000021688B688A690E6A2868184322F4407203
:1053100022F00302AB68D5F818C043EA0C2313430C
:1053200023F47C4323F0FC03EA68D5F81CC042EA6E
:105330000C221A432B6A1B03D5F810C043EA0C1346
:10534000134326F022066A686D6942EA0512324369
:10535000886021688B6123681A62012384F84630D3
:1053600084F83E3084F83F3084F8423084F843308B
:1053700084F83D30002070BD80F83C30FCF7F4F834
:10538000AFE701207047000030B4036A026A22F0E0
:10539000100202624468826922F4E6420D6842EA21
:1053A000052223F020038D6843EA05130D4DA84222
:1053B00006D0446082614A688263036230BC7047F1
:1053C000056A25F04005056223F08003CD6843EAB5
:1053D000051324F440644D6944EA85048D6944EA68
:1053E0008504E6E7002C014038B590F83C30012BED
:1053F00066D004460D46012380F83C300C2A5AD86A
:10540000DFE802F0075959591B5959593059595970
:1054100044000068FFF772FE2268936943F00803B6
:1054200093612268936923F004039361226893696E
:1054300029690B43936100203EE00068FFF7A4FF59
:105440002268936943F4006393612268936923F4AB
:105450008063936122689369296943EA0123936118
:10546000002029E00068FFF775FE2268D36943F049
:105470000803D3612268D36923F00403D36122684F
:10548000D36929690B43D361002015E00068FFF759
:1054900091FE2268D36943F40063D3612268D36923
:1054A00023F48063D3612268D369296943EA012325
:1054B000D361002000E00120002384F83C3038BD97
:1054C0000220FCE701F01F014FF0010C0CFA01FC77
:1054D000036A23EA0C030362036A8A4013430362EC
:1054E0007047000010B50446084649BB94F83E30AA
:1054F000013B18BF0123002B58D1002836D10223CD
:1055000084F83E30012201462068FFF7DBFF236864
:10551000284A93423AD02368264A93423BD0B3F1BB
:10552000804F38D0A2F59432934234D002F5806295
:10553000934230D01A6842F001021A60002036E02F
:10554000042907D008290BD094F84130013B18BF3B
:105550000123D0E794F83F30013B18BF0123CAE78D
:1055600094F84030013B18BF0123C4E7042805D05C
:10557000082807D0022384F84130C3E7022384F8C7
:105580003F30BFE7022384F84030BBE75A6C42F457
:1055900000425A64BFE79A6802F00702062A07D061
:1055A0001A6842F001021A60002000E0012010BDDC
:1055B0000020FCE7002C014038B5044690F83E007E
:1055C000C0B294F83F3094F84220D2B294F843C06D
:1055D0000D46B1B9012849D1012A48D1022384F8E6
:1055E0003E3084F842307DB3042D39D001220021B1
:1055F0002068FFF767FF012204212068FFF762FFA0
:1056000027E0DBB25FFA8CFC042912D0012833D1E9
:10561000012B2CD1012A31D1BCF1010F30D1022351
:1056200084F83E3084F83F3084F8423084F84330C8
:10563000D9E7012B1CD1BCF1010F1BD1022384F847
:105640003F3084F84330CEE7012200212068FFF785
:1056500039FF2268136843F001031360002006E05D
:10566000012204212068FFF72DFFF2E7012038BD59
:105670000120FCE71846FAE70120F8E71846F6E7AC
:105680001046F4E790F83C20012A2CD010B40346D1
:10569000012280F83C20022280F83D2002685068F8
:1056A000946820F0700C086840EA0C0050601A689A
:1056B0000E4882420AD0B2F1804F07D0A0F5943054
:1056C000824203D000F58060824204D124F080043D
:1056D000496821439160012283F83D20002083F82E
:1056E0003C0010BC70470220704700BF002C0140F6
:1056F000024690F83C30012B21D0012380F83C3049
:10570000CB6823F440738868034323F480634868BC
:10571000034323F400630868034323F480530869B8
:10572000034323F400534869034323F48043C969C6
:105730000B4311684B64002082F83C007047022044
:10574000704738B512F4804F44D00468B4F8503034
:105750009BB291F800C003EBCC03023304EB43048B
:10576000B4F80044C4F309048B69A34228D31B1B7B
:105770008B618B697BB9056835F82C309BB223F4BB
:10578000804323F0700383F4005343F4004343F059
:10579000800325F82C3012F0400F0ED002680D78EF
:1057A00032F825309BB223F4E04323F0700343F436
:1057B000004343F0C00322F8253024B9204638BD09
:1057C00000238B61D5E723460A894969006801F007
:1057D00057FFF3E70468B4F850309BB291F800C06B
:1057E00003EBCC03063304EB4304B4F80044C4F3E6
:1057F00009048B69A3422FD31B1B8B618B697BB977
:10580000056835F82C309BB223F4804323F07003F5
:1058100083F4005343F4004343F0800325F82C3015
:1058200012F0400F0FD1026891F800C032F82C300E
:105830009BB223F4E04323F0700343F4004343F0AE
:10584000C00322F82C30002CB8D023464A8949697D
:10585000006801F015FFB1E700238B61CEE738B592
:1058600000286ED0044690F89132A3B1032384F847
:10587000913200236371206800F095FF234653F8AE
:10588000040B0ECB00F07FFF50B1022384F891325D
:105890000125284638BD80F89032FCF73DFFE5E74A
:1058A0000021206800F089FF0346A8B9024620794C
:1058B000904216D902EB820104EBC1010120487429
:1058C0000A740020C87408624862013202EB820147
:1058D000C9006050D2B2EAE7022384F89132012570
:1058E000D7E7984217D903EB830204EBC2020021E9
:1058F00082F8511182F8503182F85311C2F86011C8
:10590000C2F8641103EB830204EBC202C2F868110F
:105910000133DBB2E5E7234653F8040B0ECB00F06E
:105920004EFF054620B1022384F891320125B0E7ED
:1059300000236373012384F89132206801F09EFAFA
:10594000A7E70125A5E738B590F89032012B11D0D3
:105950000446012580F89052006800F01BFF29469C
:10596000204600F00FFF206801F086FA002084F83E
:10597000900238BD0220FCE770B505460C4616467D
:1059800012F0400F00F00E810268B2F850309BB266
:10599000097803EBC103023302EB4302B2F800249F
:1059A000C2F30902A36993424ED99B1AA361A3696A
:1059B000002B66D16378002B49D12B68B3F85020B7
:1059C00092B2134403EB0113B3F80424C2F30902A7
:1059D000A3F80424B3F804246FEA42426FEA524267
:1059E00092B2A3F804242B686278002A3CD1B3F861
:1059F000502092B21344227803EB0213B3F80C2424
:105A0000C2F30902A3F80C24B3F80C246FEA424253
:105A10006FEA524292B2A3F80C2421782846FCF790
:105A2000D5FE16F4804F41D02A68217832F8213013
:105A30009BB223F4E04323F0700343F4404343F06C
:105A4000800322F8213031E00023A361AFE7012B6E
:105A5000C9D12B68B3F8502092B2134403EB011361
:105A60000022A3F80424BEE7012AD6D1B3F85020BF
:105A700092B21344227803EB02130022A3F80C2401
:105A8000CBE716F4804F0DD0286830F821309BB258
:105A900023F4E04323F0700343F4404343F08003D6
:105AA00020F8213094F82430012B12D02A68217874
:105AB00032F821309BB223F4E04323F0400383F01B
:105AC000300343F4004343F0800322F821300020E8
:105AD00070BD636913446361E3691344E361216A40
